:020000040800F2
:100000007817002065020008292C00083B20000812
:10001000252C0008CF03000845330008000000002D
:10002000000000000000000000000000CD010008FA
:10003000D30300080000000011020008612C000832
:100040007F0200087F0200087F0200087F0200088C
:100050007F0200087F020008D50300087F02000825
:100060007F0200087F0200087F0200087F0200086C
:100070007F0200087F0200087F0200087F0200085C
:100080007F0200087F0200087F0200087F0200084C
:100090007F0200087F0200087F0200087F0200083C
:1000A0007F020008FD2C00087F0200087F02000884
:1000B0007F0200087F0200087F0200087F0200081C
:1000C0007F0200087F0200087F0200087F0200080C
:1000D0007F020008353300087F0200087F02000815
:1000E000DF0300087F0200087F0200087F0200088B
:1000F0007F0200087F0200087F0200087F020008DC
:100100007F0200087F0200087F0200087F020008CB
:100110007F0200087F0200087F0200087F020008BB
:100120007F0200087F0200087F0200087F020008AB
:1001300000F002F800F03AF80AA090E8000C8244BF
:100140008344AAF10107DA4501D100F02FF8AFF29C
:10015000090EBAE80F0013F0010F18BFFB1A43F0A5
:10016000010318479C7D0000BC7D0000103A24BFAD
:1001700078C878C1FAD8520724BF30C830C144BF0C
:1001800004680C607047000000230024002500264E
:10019000103A28BF78C1FBD8520728BF30C148BFEA
:1001A0000B6070471FB51FBD10B510BD00F0D6F82D
:1001B0001146FFF7F7FF03F03FF900F0F4F803B43E
:1001C000FFF7F2FF03BC00F0FBF80000224B1968B8
:1001D0000868B0E8F00F80F30988BFF36F8F4FF025
:1001E000000080F311884EF00D0E704700000000F3
:1001F00006480068006880F3088862B661B6BFF3FD
:100200004F8FBFF36F8F00DF00BF00BF08ED00E02E
:10021000EFF30980BFF36F8F0F4B1A6820E9F00FDF
:10022000106008B54FF0500080F31188BFF34F8F76
:10023000BFF36F8F03F014FE4FF0000080F31188BE
:10024000BDE8084019680868B0E8F00F80F3098835
:10025000BFF36F8F704700BF2C000020EFF30580C5
:10026000704700000948804709480047FEE7FEE75D
:10027000FEE7FEE7FEE7FEE7FEE7FEE7FEE7FEE756
:1002800004480549054A064B70470000FB2C00084E
:100290003101000878110020781700207813002021
:1002A0007813002010B5203AC0F00B80B1E8185048
:1002B000203AA0E81850B1E81850A0E81850BFF450
:1002C000F5AF5FEA027C24BFB1E81850A0E81850EF
:1002D00044BF18C918C0BDE810405FEA827C24BF43
:1002E00051F8043B40F8043B08BF7047D20728BFD1
:1002F00031F8023B48BF11F8012B28BF20F8023B20
:1003000048BF00F8012B70474FF0000200B51346BC
:1003100094469646203922BFA0E80C50A0E80C5025
:10032000B1F12001BFF4F7AF090728BFA0E80C50D6
:1003300048BF0CC05DF804EB890028BF40F8042BCF
:1003400008BF704748BF20F8022B11F0804F18BF3C
:1003500000F8012B7047704770477047754600F0F2
:100360002BF8AE4605006946534620F00700854647
:1003700018B020B5FFF784FFBDE820404FF000061D
:100380004FF000074FF000084FF0000B21F007017D
:10039000AC46ACE8C009ACE8C009ACE8C009ACE8C0
:1003A000C0098D46704710B50446AFF30080204663
:1003B000BDE81040FFF703BF004870471811002048
:1003C00001491820ABBEFEE726000200704700BFBF
:1003D000FEE7704710B5012000F0D8F910BD10B548
:1003E0004FF4005000F0D2F910BD72B600BFFEE726
:1003F00070B50446B3F5804F13D1D1E9000540EA4A
:1004000005108D6840EA05208D6928438D8940EAF2
:10041000054054F82250064E3540284344F8220047
:1004200003E06FF0704044F82200002070BD00002F
:100430000000F0CF70B50246086852F8200020F0A6
:1004400001000E6842F826008868082801D1402380
:1004500000E00023486818438E683043CE6830437C
:100460000E6930434E693043CE6930430E6A3043E3
:100470004E6A30438E6A3043CE6A30430E6B40EA98
:10048000060488690443486B0443074D45F48065BE
:1004900045F4E025086852F82000A84320430E6880
:1004A00042F82600002070BD7FFB080010B503460F
:1004B000D1E9000440EA04108C6840EA04208C89E9
:1004C00040EA0444088A401E44EA0054087D801E25
:1004D00044EA00608C692043541C53F8244004F023
:1004E00040442043541C43F82400002010BD014622
:1004F000002291F82100022808D00420886300BF60
:10050000002081F8200000BF0120704708680068C3
:1005100020F00E000B6818600868006820F00100E9
:100520000B68186091F8403001209840CB6B586000
:10053000012081F8210000BF002081F8200000BFC9
:100540001046E2E770B50446002594F82100022821
:1005500003D00420A0630125C1E02068006820F0DA
:100560000E00216808602068006820F00100216802
:1005700008605C492068884252D95A497839206815
:10058000884201D1012047E05649643920688842F9
:1005900001D1102040E0534950392068884201D1F0
:1005A000801539E04F493C392068884201D18014D8
:1005B00032E04C4928392068884202D14FF480301B
:1005C0002AE0484914392068884202D14FF480104B
:1005D00022E044492068884201D140041CE042499D
:1005E0002068884201D1012016E03F49143120687B
:1005F000884201D110200FE03B4928312068884211
:1006000001D1801508E038493C312068884201D189
:10061000801401E04FF480303349091F086051E035
:10062000304978392068884201D1012047E02D49BE
:1006300064392068884201D1102040E029495039AE
:100640002068884201D1801539E026493C3920686C
:10065000884201D1801432E022492839206888423A
:1006600002D14FF480302AE01E49143920688842B4
:1006700002D14FF4801022E01A492068884201D14B
:1006800040041CE018492068884201D1012016E08E
:10069000154914312068884201D110200FE0124919
:1006A00028312068884201D1801508E00E493C318C
:1006B0002068884201D1801401E04FF4803009495C
:1006C00080394860012084F8210000BF002084F8B0
:1006D000200000BF606B10B12046616B8847284640
:1006E00070BD0000800002400804024000B585B0E3
:1006F000002001900290039004901748006808B110
:1007000005B000BD01201449086000BF13484069CE
:1007100040F48070114948610846406900F48070D7
:10072000009000BF00BF4FF6807001900220029041
:100730000320049001A90A4800F036F84CF6B37083
:100740000190022002900320049001A9054800F0C6
:100750002BF800BFD4E70000140000200010024076
:10076000001801400014014001280BD10649096816
:100770000978491C032291FBF2F302FB1311024A90
:1007800012681170704700000400002010B5044684
:1007900004480068204020B1024804602046FFF76A
:1007A000E3FF10BD140401402DE9F8470246002381
:1007B0009C467BE14FF0010808FA03F4D1F8008071
:1007C00008EA0400A0427DD1DFF8F4A2D1F8048049
:1007D000A8EB0A09D0453AD014DCB8F1030F50D089
:1007E00009DCB8F1000F31D0B8F1010F1CD0B8F11D
:1007F000020F49D120E0B8F1110F18D0B8F1120F53
:1008000042D11EE0B9F5881F25D006DCB9F5803F3E
:1008100020D0B9F5801F37D11AE0B9F5001F18D0E4
:10082000B9F5041F30D117E0D1F80CC02DE0D1F894
:100830000C8008F1040C28E0D1F80C8008F1080CB9
:1008400023E0D1F80C8008F10C0C1EE000BF00BFC3
:1008500000BF00BF00BF00BFD1F80880B8F1000F93
:1008600002D14FF0040C0BE0D1F80880B8F1010F71
:1008700003D14FF0080C146102E04FF0080C5461F2
:1008800003E04FF0000C00E000BF00BFFF2801D8DC
:10089000904601E002F104084646FF2802D84FEADC
:1008A000830803E0A3F108084FEA88084746D6F812
:1008B00000804FF00F0909FA07F928EA09080CFA35
:1008C00007F900E07AE048EA0908C6F80080D1F8A4
:1008D000048008F08058B8F1805F6FD100BFDFF866
:1008E000E481D8F8188048F00108DFF8D891C9F8F9
:1008F0001880C846D8F8188008F00108CDF80080A4
:1009000000BF00BF4FEAB9384FEA930958F82950A1
:100910004FEA83784FEA18794FF00F0808FA09F880
:1009200025EA0805DFF8A081424502D14FF0000812
:1009300024E0DFF89881424502D14FF001081DE024
:10094000DFF88C81424502D14FF0020816E0DFF853
:100950008481424502D14FF003080FE0DFF878812F
:10096000424502D14FF0040808E0DFF870814245AB
:1009700002D14FF0050801E04FF006084FEA8379F5
:100980004FEA197908FA09F848EA0505DFF85081B5
:100990004FEA930948F82950D1F8048008F48018E8
:1009A000B8F5801F0BD1DFF83C81D8F8008048EA09
:1009B0000008DFF83091C9F800800AE075E0DFF840
:1009C0002481D8F8008028EA0008DFF81891C9F8D7
:1009D0000080D1F8048008F40018B8F5001F0ED18B
:1009E000DFF8008108F10408D8F8008048EA000820
:1009F000DFF8F09009F10409C9F800800DE0DFF894
:100A0000E48008F10408D8F8008028EA0008DFF83C
:100A1000D49009F10409C9F80080D1F8048008F4E1
:100A20000038B8F5003F0ED1DFF8B880A8F104080F
:100A3000D8F8008048EA0008DFF8A890A9F1040976
:100A4000C9F800800DE0DFF89C80A8F10408D8F810
:100A5000008028EA0008DFF88C90A9F10409C9F8A1
:100A60000080D1F8048008F48038B8F5803F0ED1BA
:100A7000DFF87080A8F10808D8F8008048EA00087C
:100A8000DFF86090A9F10809C9F800800DE0DFF8EF
:100A90005480A8F10808D8F8008028EA0008DFF898
:100AA0004490A9F10809C9F800805B1CD1F80080C6
:100AB00028FA03F8B8F1000F7FF47CAEBDE8F887A0
:100AC000000011100010024000080140000C01401D
:100AD000001001400014014000180140001C0140BA
:100AE00008000140080401400AB1016101E00B0463
:100AF0000361704701480068704700001C00002037
:100B000003480068034909780844014908607047B0
:100B10001C0000202400002010B50848006840F0A8
:100B2000100006490860032000F0D8F80F2000F0FC
:100B300007F800F055F8002010BD0000002002402A
:100B4000F0B587B0044600260027002500BF1F48E7
:100B5000806940F400601D4988610846806900F49E
:100B60000060009000BF00BF01A902A800F090F94A
:100B700000F0C6F906461648B6FBF0F0471E1548C9
:100B80001549086040F2E7311348C1604760002111
:100B900001618160816100F0B5FC054695B90E48A0
:100BA00000F0FCFC05466DB9192000F049F8102C46
:100BB00007D200222146192000F052F807480460AD
:100BC00000E00125284607B0F0BD000000100240FB
:100BD00040420F00002C0140E003002020000020D4
:100BE00008B500BF1448806940F0010012498861CF
:100BF0000846806900F00100009000BF00BF00BF00
:100C00000846C06940F08050C8610846C06900F0DD
:100C10008050009000BF00BF00220F21901E00F006
:100C20001FF800BF0549486820F0E06040F0007000
:100C3000486000BF08BD00000010024000000140F5
:100C400001460846002809DB00F01F0301229A40F4
:100C500043099B0003F1E023C3F8002100BF704764
:100C60002DE9F05F80460D461646002702F0C8FBCE
:100C7000074639462A46334601F00700C0F1070A05
:100C8000BAF1040F02D94FF0040A01E0C0F1070ADB
:100C9000D14600F1040ABAF1070F02D24FF0000A60
:100CA00001E0A0F1030AD4464FF0010A0AFA09FA5A
:100CB000AAF1010A0AEA020A0AFA0CFA4FF0010B39
:100CC0000BFA0CFBABF1010B0BEA030B4AEA0B042A
:100CD0002146404602F09CFBBDE8F09F00BF00F0BB
:100CE0000702064B19684FF6FF031940044B0B43EC
:100CF00043EA0221014B196000BF70470CED00E090
:100D00000000FA0570B504460D460CB9012070BD0F
:100D10005A48006800F00700A8420ED25748006801
:100D200020F007002843554908600846006800F095
:100D30000700A84201D00120E9E7207800F0020076
:100D400002281DD1207800F00400042805D14C4869
:100D5000406840F4E0604A494860207800F00800AC
:100D6000082805D14648406840F46050444948602E
:100D70004348406820F0F000A168084340494860BB
:100D8000207800F0010078B36068012806D13C4863
:100D9000006800F4003090B90120B8E760680228CC
:100DA00006D13748006800F0007040B90120AEE776
:100DB0003348006800F0020008B90120A7E7304876
:100DC000406820F00300616808432D494860FFF740
:100DD00091FE064609E0FFF78DFE801B41F2883147
:100DE000884202D9032092E707E02548406800F0D6
:100DF0000C006168B0EB810FEDD12048006800F075
:100E00000700A8420ED91D48006820F007002843BB
:100E10001A4908600846006800F00700A84201D09F
:100E2000012074E7207800F00400042807D114485A
:100E3000406820F4E060E168084311494860207888
:100E400000F00800082808D10D48406820F46050E0
:100E5000216940EAC1000A49486000F061F8084988
:100E60004968C1F30311074A515CC840064908604C
:100E700006480068FFF764FE002048E700200240B3
:100E8000001002407A4300082800002020000020C3
:100E90000F2202600D4A526802F0030242600B4AC0
:100EA000526802F0F0028260084A526802F4E0627E
:100EB000C260064A526802F46052D2080261044AD3
:100EC000126802F007020A6070470000001002403A
:100ED0000020024001480068704700002800002000
:100EE00000B5FFF7F7FF04494968C1F30221034A3F
:100EF000515CC84000BD0000001002408A43000859
:100F000000B5FFF7E7FF04494968C1F3C221034A6E
:100F1000515CC84000BD0000001002408A43000838
:100F200070B500210022002400230020134D6968C1
:100F300001F00C05F5B1042D02D0082D19D101E006
:100F40000F4819E00F4DC1F38346AB5D01F48035C6
:100F500055B10A4D6D68C5F340450B4E725D084DA5
:100F60005D43B5FBF2F402E0084D03FB05F42046B7
:100F700002E000BF024800BF00BF70BD0010024089
:100F800000127A00684300087843000800093D0019
:100F9000F8B504460CB90120F8BD207800F0010036
:100FA000002878D0F848406800F00C0004280CD0E5
:100FB000F548406800F00C00082811D1F24840685C
:100FC00000F48030B0F5803F0AD1EF48006800F4AB
:100FD000003000285FD0606800285CD10120DBE78A
:100FE00000BF6068B0F5803F06D1E748006840F474
:100FF0008030E549086028E0606858B9E248006838
:1010000020F48030E04908600846006820F4802021
:1010100008601AE06068B0F5A02F0BD1DA480068CC
:1010200040F48020D84908600846006840F48030C9
:1010300008600AE0D448006820F48030D249086093
:101040000846006820F48020086000BF606888B10E
:10105000FFF750FD054606E0FFF74CFD401B6428F6
:1010600001D9032098E7C848006800F40030002840
:10107000F2D010E0FFF73EFD054606E0FFF73AFD2F
:10108000401B642801D9032086E7BF48006800F4AC
:1010900000300028F2D1207800F00200022857D159
:1010A000B948406800F00C0050B1B748406800F003
:1010B0000C00082818D1B448406800F4803098B972
:1010C000B148006800F0020020B12069012801D079
:1010D000012061E7AC48006820F0F800616940EA4F
:1010E000C100A949086033E02069E8B10120A7499F
:1010F0000860FFF7FFFC054606E0FFF7FBFC401B1E
:10110000022801D9032047E79F48006800F0020049
:101110000028F2D09C48006820F0F800616940EA9D
:10112000C1009949086013E0002098490860FFF762
:10113000E1FC054606E0FFF7DDFC401B022801D973
:10114000032029E79048006800F002000028F2D14F
:10115000207800F0080008282DD1A069B8B101203E
:101160008B490860FFF7C6FC054606E0FFF7C2FCA6
:10117000401B022801D903200EE78348406A00F093
:1011800002000028F2D0012001F050FD13E0002001
:101190007F490860FFF7AEFC054606E0FFF7AAFCB2
:1011A000401B022801D90320F6E67748406A00F088
:1011B00002000028F2D1207800F00400042873D146
:1011C00000277148C06900F0805070B900BF6E48B8
:1011D000C06940F080506C49C8610846C06900F0A1
:1011E0008050009000BF00BF01276A48006800F4EB
:1011F0008070B0B96748006840F480706549086045
:10120000FFF778FC054606E0FFF774FC401B6428F6
:1012100001D90320C0E65F48006800F48070002810
:10122000F2D000BFE068012806D15748006A40F0BC
:1012300001005549086227E0E06858B95248006A41
:1012400020F00100504908620846006A20F00400BE
:10125000086219E0E06805280BD14B48006A40F0AD
:101260000400494908620846006A40F0010008622B
:101270000AE04548006A20F0010043490862084638
:10128000006A20F00400086200BFE068A0B1FFF728
:1012900031FC054609E0FFF72DFC401B41F2883187
:1012A000884202D9032077E622E03748006A00F03E
:1012B00002000028EFD012E0FFF71CFC054608E012
:1012C000FFF718FC401B41F28831884201D9032006
:1012D00062E62D48006A00F002000028F0D1012FDC
:1012E00005D12948C06920F080502749C86100BF56
:1012F000E069C8B32448406800F00C00082860D0BA
:10130000E069022848D1002020490866FFF7F2FB77
:10131000054606E0FFF7EEFB401B022801D903203B
:101320003AE61948006800F000700028F2D1206AFF
:10133000B0F5803F07D11448406820F40030A16820
:10134000084311494860D4E9080108430E49496837
:1013500021F4741108430C49486001200B490866C8
:10136000FFF7C8FB054607E03DE0FFF7C3FB401B66
:10137000022801D903200FE60348006800F000703E
:101380000028F2D02FE0000000100240000042428E
:101390008004424200700040002014490866FFF7B4
:1013A000A9FB054606E0FFF7A5FB401B022801D973
:1013B0000320F1E50E48006800F000700028F2D12B
:1013C00011E0E069012800D1E6E50948466806F425
:1013D0008031206A814204D106F47011606A814232
:1013E00001D00120D8E50020D6E5000000004242EF
:1013F0000010024070B504460E4615461CB1A069A7
:10140000B0F5807F01D1012070BD94F8410028B96A
:10141000002084F84000204600F01FF804F1080185
:101420002068FFF707F83146A2682068FFF73EF80A
:101430002946236BD4E90102FEF7DAFFA168206890
:1014400050F8210040F00100A268216841F8220014
:10145000012084F841000020D6E710B50446FFF7CC
:1014600045F910BD7047704730B502460B4600BFC6
:1014700092F83C00012801D1022030BD012082F801
:101480003C0000BF022082F83D00106844681068EC
:10149000816824F070041868044310684460144D97
:1014A0001068A84213D0134D1068A8420FD01068DE
:1014B000B0F1804F0BD0104D1068A84207D00F4DEF
:1014C0001068A84203D00E4D1068A84205D121F043
:1014D00080015868014310688160012082F83D0056
:1014E00000BF002082F83C0000BF00BFC5E700003D
:1014F000002C01400034014000040040000800407E
:10150000000C004010B504460CB9012010BD94F841
:101510003D0028B9002084F83C00204600F026F861
:10152000022084F83D00211D206801F0EFFB01201E
:1015300084F8460000BF84F83E0001213F20015599
:10154000402001554120015500BF00BF012084F813
:10155000420043200155442001554520015500BF5C
:10156000012084F83D000020D0E7000008B5094ABA
:10157000016891420DD100BF0749C96941F00201DC
:10158000054AD1611146C96901F00201009100BF0D
:1015900000BF08BD0004004000100240014691F861
:1015A0003D00012801D001207047022081F83D0054
:1015B0000868C06840F001000B68D860164B0868E6
:1015C000984213D0154B086898420FD00868B0F1C4
:1015D000804F0BD0124B0868984207D0114B086817
:1015E000984203D0104B086898420CD10868806874
:1015F00000F00702062A0CD00868006840F00100DD
:101600000B68186005E00868006840F001000B688E
:1016100018600020C8E70000002C014000340140A1
:101620000004004000080040000C00402DE9F0419B
:1016300004460D46002700BF94F83C00012802D163
:101640000220BDE8F081012084F83C0000BF0220A8
:1016500084F83D002068866826F0770626F47F46E9
:10166000206886602868502833D00CDC202850D0B1
:1016700004DC00284BD0102851D149E0302849D053
:1016800040284CD139E060282DD0702807D0B0F523
:10169000805F03D0B0F5005F41D10DE041E0D5E9B6
:1016A00002136A68206801F090FB2068866846F0A3
:1016B00077062068866034E0D5E902136A682068FE
:1016C00001F083FB2068806840F4804021688860D6
:1016D00027E0EA686968206801F068FC502120680A
:1016E00001F07EFB1DE0EA686968206801F071FC8A
:1016F0006021206801F074FB13E0EA6869682068E3
:1017000001F054FC4021206801F06AFB09E000BFB1
:1017100000BF00BF2968206801F062FB01E00127DB
:1017200000BF00BF012084F83D0000BF002084F806
:101730003C0000BF384684E7704710B50446206877
:101740000069C0F34000D8B12068C068C0F3400011
:10175000B0B16FF002002168086101202077206895
:10176000806900F0030018B12046FFF7E5FF05E0AF
:10177000204600F0D9F8204600F08DF900202077AF
:1017800020680069C0F38000D8B12068C068C0F349
:101790008000B0B16FF0040021680861022020775A
:1017A0002068806900F4407018B12046FFF7C4FF3C
:1017B00005E0204600F0B8F8204600F06CF9002063
:1017C000207720680069C0F3C000D8B12068C068E5
:1017D000C0F3C000B0B16FF00800216808610420B8
:1017E00020772068C06900F0030018B12046FFF799
:1017F000A3FF05E0204600F097F8204600F04BF9E3
:101800000020207720680069C0F30010D8B120685C
:10181000C068C0F30010B0B16FF01000216808611B
:10182000082020772068C06900F4407018B1204675
:10183000FFF782FF05E0204600F076F8204600F032
:101840002AF9002020772068006900F0010058B1D3
:101850002068C06800F0010030B16FF0010021681D
:101860000861204600F092F920680069C0F3C010BA
:1018700058B12068C068C0F3C01030B16FF080006C
:10188000216808612046FFF7EDFD20680069C0F37C
:10189000801058B12068C068C0F3801030B16FF07C
:1018A000400021680861204600F07CF9206800694A
:1018B000C0F3401058B12068C068C0F3401030B188
:1018C0006FF02000216808612046FFF7CCFD10BDB5
:1018D00010B586B004460020029003900490059055
:1018E0000E492068884216D100BF0D48806940F03B
:1018F00008000B4988610846806900F008000190E3
:1019000000BF00BF0220029003900320059002A9AF
:101910000448FEF749FF06B010BD00000004004077
:1019200000100240000C014070472DE9F0410446D0
:101930000D461646002700BF94F83C00012802D14E
:101940000220BDE8F081012084F83C0000BF36B1E0
:10195000042E1BD0082E31D00C2E5ED145E0294636
:10196000206801F047FA2068806940F0080021688B
:1019700088612068806920F00400216888612068FF
:101980008069296908432168886148E02946206800
:1019900001F068FA2068806940F40060216888617D
:1019A0002068806920F480602168886120688069EF
:1019B000296940EA01202168886130E029462068D1
:1019C00001F08EFA2068C06940F008002168C86103
:1019D0002068C06920F004002168C8612068C069DF
:1019E000296908432168C86119E02946206801F087
:1019F000B3FA2068C06940F400602168C8612068BB
:101A0000C06920F480602168C8612068C0692969C4
:101A100040EA01202168C86101E0012700BF00BF42
:101A200000BF002084F83C0000BF384689E710B5AD
:101A300004460CB9012010BD94F83D0028B90020DF
:101A400084F83C00204600F025F8022084F83D0090
:101A5000211D206801F05AF9012084F8460000BFDA
:101A600084F83E0001213F200155402001554120CE
:101A7000015500BF00BF012084F8420043200155FA
:101A8000442001554520015500BF012084F83D0048
:101A90000020D0E77047704770B504460D4615B971
:101AA00094F83E000BE0042D02D13F20005D06E0DB
:101AB000082D02D14020005D01E04120005D012899
:101AC00001D0012070BD1DB9022084F83E000EE057
:101AD000042D03D102213F20015508E0082D03D138
:101AE00002214020015502E002214120015501223E
:101AF0002946206801F058F91F492068884203D020
:101B00001E492068884201D1012000E0002028B150
:101B10002068406C40F40040216848641649206801
:101B2000884213D01549206888420FD02068B0F150
:101B3000804F0BD012492068884207D01149206895
:101B4000884203D01049206888420CD12068806800
:101B500000F00706062E0CD02068006840F0010057
:101B60002168086005E02068006840F001002168F5
:101B700008600020A6E70000002C0140003401406E
:101B80000004004000080040000C004010B504466E
:101B900003492068884201D1FEF7B2FF10BD000062
:101BA000002C014070477047704700002DE9F84F46
:101BB0000446206805682068C668206847694FF0B9
:101BC0000009CA4605F00F09B9F1000F0AD105F066
:101BD000200038B106F0200020B1204601F05DFA67
:101BE000BDE8F88FB9F1000F7BD007F0010018B9FC
:101BF00006F49070002874D005F0010030B106F4AE
:101C0000807018B1606C40F00100606405F0040061
:101C100030B107F0010018B1606C40F00200606460
:101C200005F0020030B107F0010018B1606C40F01F
:101C30000400606405F0080048B106F0200010B907
:101C400007F0010018B1606C40F008006064606C3F
:101C5000002845D005F0200028B106F0200010B182
:101C6000204601F01AFA20684069C0F3801A606CBF
:101C700000F0080010B9BAF1000F2CD0204601F096
:101C8000C6F92068406900F0400000B300BF00BF03
:101C90002168143151E8001F21F0400021681431FF
:101CA00041E80002002AF3D100BFE06B50B1774851
:101CB000E16B4863E06BFEF745FC88B1E06B416B7C
:101CC00088470DE02046FFF76FFF09E009E0204656
:101CD000FFF76AFF04E02046FFF766FF002060641C
:101CE0007EE7206B012877D105F01000002873D023
:101CF00006F010000028FAD000BF002000902068F5
:101D00000068009020684068009000BF00BF206815
:101D1000406900F0400000285FD0E06B0068406838
:101D20001FFA80F8B8F1000F55D0A08D404552DD64
:101D3000A4F82E80E06B8069202843D000BF00BF4C
:101D400021680C3151E8001F21F4807021680C31AA
:101D500041E80002002AF3D100BF00BF00BF2168A4
:101D6000143151E8001F21F001002168143141E8CD
:101D70000002002AF3D100BF00BF00BF2168143168
:101D800051E8001F21F040002168143141E80002B1
:101D9000002AF3D100BF202084F8420000202063F5
:101DA00000BF00BF21680C3151E8001F21F0100076
:101DB00021680C3141E80002002AF3D100BFE06B3A
:101DC000FEF795FB02206063A08DE28D801A81B240
:101DD0002046FFF7E8FE03E742E0A08DE18D401AC0
:101DE0001FFA80F8E08DD0B3B8F1000F37D000BFF4
:101DF00000BF21680C3151E8001F21F49070216868
:101E00000C3141E80002002AF3D100BF00BF00BF3F
:101E10002168143151E8001F21F0010021681431BC
:101E200041E80002002AF3D100BF202084F84200DC
:101E30000020206300BF00BF21680C3151E8001F63
:101E400021F0100021680C3141E80002002AF3D192
:101E500000BF0220606341462046FFF7A4FEBFE6B4
:101E600005F0800030B106F0800018B1204601F086
:101E700031FAB5E605F0400030B106F0400018B187
:101E8000204601F0FAF8ABE600BFA9E6FB2F0008F8
:101E900010B504460CB9012010BDA06900B100E0E6
:101EA00000BF94F8410028B9002084F84000204683
:101EB00000F02AF8242084F841002068C06820F44B
:101EC00000502168C860204601F066F9206800696A
:101ED00020F49040216808612068406920F02A00C1
:101EE000216848612068C06840F400502168C860DB
:101EF00000206064202084F8410084F84200002023
:101F0000606300BFC8E7000010B586B0044600203B
:101F100002900390049005901E492068884236D1B3
:101F200000BF1D48806940F480401B498861084615
:101F3000806900F48040019000BF00BF00BF0846E8
:101F4000806940F0040088610846806900F0040060
:101F5000019000BF00BF48150290022003900320AB
:101F6000059002A90D48FEF71FFC4FF48060029017
:101F700000200390049002A90848FEF715FC0022F7
:101F800005212520FEF76CFE2520FEF759FE06B040
:101F900010BD000000380140001002400008014060
:101FA00070B504460D46164694F8420020280BD121
:101FB00005B10EB9012070BD0020206332462946CC
:101FC000204601F067F9F6E70220F4E710B5044671
:101FD0000320084909680870032207A1074800F098
:101FE0000FF8022203480168491C0448FFF7D8FF94
:101FF00010BD0000040000206F6B0000980300205B
:1020000010B5034693F84100202813D101B10AB955
:10201000012010BD19629A84DA84002058642120BE
:1020200083F841001868C06840F080001C68E060D8
:102030000020EEE70220ECE7704700BFFEE700005B
:1020400020B14FF08051044A116003E04FF48051F9
:10205000014A116070470000101401402DE9F04161
:1020600006460F4614461D462B4622463946304644
:1020700000F024F904FB05F00249098800F08EF80D
:10208000BDE8F0819A00002001B502E00098401EF2
:10209000009000980028F9D108BD00002DE9F05FFC
:1020A000804689461646A6F120001FFA80FA1E498E
:1020B000096889881C4A1268D28801FB02F0C1179E
:1020C00000EB5171C1F3C7071748006800680AFBAD
:1020D000070B15480068C388134800688288494682
:1020E000404600F0EBF82C2000F092FB002416E0B4
:1020F000002510E01BF8040080212941084020B190
:102100000A48008800F088FB03E00948008800F0D6
:1021100083FB681CC5B2082DECDB601CC4B2BC425A
:10212000E6DBBDE8F09F000094000020980000204E
:102130009A00002070B505460E46144624E0284655
:10214000134909688988084412490988884205DDCD
:1021500000250F480068C088304486B230460C49DC
:102160000968C98808440C490988884201DD0025AE
:102170000026227831462846FFF790FF641C044869
:1021800000688088284485B220780028D7D170BDA7
:10219000940000208C0000208E00002070B50446C2
:1021A0000D4600262C2000F033FB00BF03E028463C
:1021B00000F032FB761CA642F9D370BD10B5044680
:1021C000072C00DD10BD31480470204604EBD071AF
:1021D0004910A4EB410139B9F0202D4908804FF492
:1021E000A0702C49088006E04FF4A07028490880B0
:1021F000F02028490880362000F00AFB2648008895
:1022000049F24131884205D1082141EA441000F0E9
:1022100003FB0AE02048008848F25251884204D16A
:10222000002141EA441000F0F7FA2A2000F0F0FA09
:10223000002000F0F1FA002000F0EEFA14490988BD
:10224000491EC1F3072000F0E7FA11490978491E39
:10225000C8B200F0E1FA2B2000F0DAFA002000F01A
:10226000DBFA002000F0D8FA0A490988491EC1F3B8
:10227000072000F0D1FA07490978491EC8B200F0DA
:10228000CBFA2C2000F0C4FA00BF9BE7900000209E
:102290008C0000208E0000209200002010B501204C
:1022A000FFF7CEFE00F0A0FA00F038F80248007800
:1022B000FFF784FF10BD0000900000202DE9F041E1
:1022C00004460D4616461F462A2000F0A1FA2012A9
:1022D00000F0A2FAE0B200F09FFAA119491EC1F382
:1022E0000F2000F099FAA119491EC8B200F094FA23
:1022F0002B2000F08DFA281200F08EFAE8B200F0E0
:102300008BFAE919491EC1F30F2000F085FAE9198B
:10231000491EC8B200F080FABDE8F08110B500F0A7
:1023200025FAFE4908800846008849F24131884272
:102330007ED1CF2000F06CFA002000F06DFA8120F1
:1023400000F06AFA302000F067FAED2000F060FA41
:10235000642000F061FA032000F05EFA122000F021
:102360005BFA812000F058FAE82000F051FA85204D
:1023700000F052FA102000F04FFA782000F04CFAEA
:10238000CB2000F045FA392000F046FA2C2000F06E
:1023900043FA002000F040FA342000F03DFA062015
:1023A00000F03AFAF72000F033FA202000F034FA77
:1023B000EA2000F02DFA002000F02EFA002000F0B4
:1023C0002BFAB12000F024FA002000F025FA1B209F
:1023D00000F022FAB62000F01BFA0A2000F01CFAE6
:1023E000A22000F019FAC02000F012FA352000F007
:1023F00013FAC12000F00CFA112000F00DFAC520EC
:1024000000F006FA452000F007FA452000F004FA33
:10241000C72000F0FDF9A22000F0FEF9F22000F044
:10242000F7F9002000F0F8F9262000F0F1F900E0BB
:1024300096E0012000F0F0F9E02000F0E9F90F202B
:1024400000F0EAF9262000F0E7F9242000F0E4F992
:102450000B2000F0E1F90E2000F0DEF9092000F079
:10246000DBF9542000F0D8F9A82000F0D5F9462077
:1024700000F0D2F90C2000F0CFF9172000F0CCF9D1
:10248000092000F0C9F90F2000F0C6F9072000F07C
:10249000C3F9002000F0C0F9E12000F0B9F90020F4
:1024A00000F0BAF9192000F0B7F91B2000F0B4F9D8
:1024B000042000F0B1F9102000F0AEF9072000F080
:1024C000ABF92A2000F0A8F9472000F0A5F939203F
:1024D00000F0A2F9032000F09FF9062000F09CF91B
:1024E000062000F099F9302000F096F9382000F02D
:1024F00093F90F2000F090F9362000F089F9C820F8
:1025000000F08AF92A2000F083F9002000F084F915
:10251000002000F081F9002000F07EF9EF2000F0AB
:102520007BF92B2000F074F9002000F075F90020F1
:1025300000F072F9012000F06FF93F2000F06CF913
:102540003A2000F065F9552000F066F9112000F0FE
:102550005FF97348FFF798FD292000F059F901E170
:102560006E48008848F252518842F8D1CF2000F0DE
:102570004FF9002000F050F9C12000F04DF9302053
:1025800000F04AF9ED2000F043F9642000F044F92E
:10259000032000F041F9122000F03EF9812000F004
:1025A0003BF9E82000F034F9852000F035F91020DF
:1025B00000F032F9782000F02FF9CB2000F028F954
:1025C000392000F029F92C2000F026F9002000F035
:1025D00023F9342000F020F9022000F01DF9F72043
:1025E00000F016F9202000F017F9EA2000F010F9A9
:1025F000002000F011F9002000F00EF9C02000F0DA
:1026000007F9212000F008F9C12000F001F911209C
:1026100000F002F9C52000F0FBF82D2000F0FCF8D6
:10262000332000F0F9F8362000F0F2F8002000F036
:10263000F3F83A2000F0ECF8552000F0EDF8B12066
:1026400000F0E6F8002000F0E7F8172000F0E4F8CA
:10265000B62000F0DDF80A2000F0DEF8A22000F03D
:10266000DBF8F62000F0D4F8012000F0D5F8302097
:1026700000F0D2F8F22000F0CBF8002000F0CCF807
:10268000262000F0C5F8012000F0C6F8E02000F098
:10269000BFF8D02000F0C0F8002000F0BDF8022004
:1026A00000F0BAF8072000F0B7F80B2000F0B4F8FB
:1026B0001A2000F0B1F8312000F0AEF8542000F0FC
:1026C000ABF8402000F0A8F8292000F0A5F812206F
:1026D00000F0A2F8122000F09FF8122000F09CF801
:1026E000172000F099F8E12000F092F8D02000F0D7
:1026F00093F8002000F090F8022000F08DF80720F9
:1027000000F08AF8052000F087F8252000F084F812
:102710002D2000F081F8442004E000009200002009
:10272000FCBF020000F078F8452000F075F81C208E
:1027300000F072F8182000F06FF8162000F06CF826
:102740001C2000F069F81D2000F066F8112000F050
:102750005FF80548FFF798FC292000F059F82C2075
:1027600000F056F810BD0000FCBF020010B50024B8
:10277000042000F04DF800BF1748008800BF16483D
:10278000008800F02BF804464FF6FF7000EA04249E
:1027900000F024F8044348F25250844201D120460C
:1027A00010BDD32000F034F800BF0B48008800BFF4
:1027B0000948008800F012F804464FF6FF7000EA5E
:1027C000042400F00BF8044349F24130844201D163
:1027D0002046E5E70020E3E70000026001480088AA
:1027E000704700000000026010B54FF40030074948
:1027F000086040F6FF20FFF747FC0220034908600D
:1028000040F6FF20FFF740FC10BD0000101801400B
:102810004FF0C041088070470149088070470000B0
:1028200000000260054651E02E46347824B90020AD
:1028300027490968086445E0012C10D16420244927
:10284000096808644FF47A7001F07CFA002020498E
:10285000096808644FF4FA7001F074FA32E0022C4F
:1028600022D107E01B4800681949096808640A205A
:1028700001F068FA174801680068401C154A1060AA
:102880006429EFDB07E01348006811490968086410
:10289000052001F057FA0F4801680068401E0D4AF4
:1028A00010600029EFD10DE0032C0BD17178303985
:1028B0007278303A02EB820201EB42000449096867
:1028C000086400BF022001F03DFA00BFACE7000041
:1028D000500300200C00002000B587B01C220649E0
:1028E0006846FDF7DFFC0021684600F013FE03494F
:1028F000086007B000BD00004C4300081000002035
:1029000000B58FB01C2108A8FDF7FEFC1C2101A812
:10291000FDF7FAFC4FF02040234908602348486047
:102920000020886000212048C160016110214161C0
:1029300000218161C161016241624FF48051816275
:102940000021C1624FF48041016300214163816332
:10295000002008900F2009901A200A9000200B9068
:1029600010200C9011200D9000200E9001900F204F
:102970000290012003900020049010200590112067
:1029800006900020079001AA08A90748FEF732FD2B
:1029900008B1FDF72AFD0648C06940F4806004498B
:1029A000C8610FB000BD000008030020040100A0B2
:1029B0000000014000B585B0002001900290039016
:1029C000049000BF5948806940F040005749886131
:1029D0000846806900F04000009000BF00BF00BFC3
:1029E0000846806940F0100088610846806900F060
:1029F0001000009000BF00BF00BF0846806940F093
:102A0000040088610846806900F00400009000BF5F
:102A100000BF00BF0846806940F008008861084692
:102A2000806900F00800009000BF00BF00BF0846AA
:102A3000806940F0200088610846806900F020002D
:102A4000009000BF00BF002206213948FEF74CF875
:102A500000224FF440513748FEF746F80122114654
:102A60003348FEF741F80520019001200290002034
:102A700003900320049001A92D48FDF795FE18202E
:102A80000190002002900120039001A92848FDF741
:102A90008BFE4FF4005001902748029001200390D4
:102AA00001A92648FDF780FE0120019022480290EE
:102AB0000120039001A92248FDF776FE4FF48050D3
:102AC000019001200290002003900220049001A9AF
:102AD0001848FDF769FE4FF4005001900120029064
:102AE000002003900320049001A91248FDF75CFE2A
:102AF0000220019001200290002003900220049007
:102B000001A90B48FDF750FE002205210620FEF723
:102B1000A7F80620FEF794F8002205212820FEF7EA
:102B20009FF82820FEF78CF805B000BD0010024089
:102B30000018014000140140000021100010014065
:102B40000008014000B58DB0002009900A900B905C
:102B50000C90079008901C216846FDF7D5FB214892
:102B60002149086040F26710486000211E488160DA
:102B70006321C1600021016180218161FEF7C2FCF7
:102B800008B1FDF732FC4FF48050099009A91648AE
:102B9000FEF74CFD08B1FDF728FC1348FEF747FF90
:102BA00008B1FDF722FC00200790089007A90E4805
:102BB000FEF75AFC08B1FDF718FC602000900020D9
:102BC000019002200290002004900C2269460648E1
:102BD000FEF7ABFE08B1FDF708FC0348FEF778FEF0
:102BE0000DB000BD000400405003002010B50B489C
:102BF0000B4908604FF41650486000210848816076
:102C0000C16001610C21416100218161C161FFF757
:102C10003FF908B1FDF7E9FB10BD000000380140A5
:102C20009803002000BFFEE700BFFEE708B5084993
:102C30000968C9084FF47A72B1FBF2F1414300917F
:102C400000BF00BF00994A1E00920029F9D108BDBB
:102C50002800002000BF012000F04BFCFBE7000033
:102C600010B500BF502080F31188BFF34F8FBFF322
:102C70006F8F00BF01F044FA18B14FF08050044943
:102C8000086000BF002080F3118800BF10BD000065
:102C900004ED00E000B58FB0282105A8FDF734FB56
:102CA00014216846FDF730FB0120059000040690D2
:102CB000002007900120099002200C90C1030D9183
:102CC0004FF4E0110E9105A8FEF762F908B1FDF787
:102CD0008CFB0F20009002200190002002904FF406
:102CE000806003900020049002216846FEF70AF8F5
:102CF00008B1FDF77AFB0FB000BD704710B5024870
:102D0000FEF71BFD10BD0000E003002010B50268B7
:102D1000204B98420ED0204B98420BD0B0F1804F00
:102D200008D01E4B984205D01D4B984202D01D4B37
:102D3000984203D122F070024B681A43154B984217
:102D40000ED0154B98420BD0B0F1804F08D0134BEA
:102D5000984205D0124B984202D0124B984203D1B0
:102D600022F44072CB681A4322F080034C6943EA94
:102D7000040202608B68C3620B688362054B984251
:102D800002D0054B984201D10B69036301234361D3
:102D900010BD0000002C0140003401400004004040
:102DA00000080040000C004030B501F01F05012470
:102DB00004FA05F3046A9C430462046A01F01F05E7
:102DC00002FA05F52C43046230BD30B50C4681682B
:102DD00021F47F4142EA032525432943816030BD28
:102DE0000A46816821F0700142F0070319438160AF
:102DF0007047000030B5026A056A25F001050562DA
:102E00004368846924F0700424F003040D682C43A3
:102E100022F002028D682A43104DA84200D103E03F
:102E20000F4DA84206D100BF22F00802CD682A4308
:102E300022F00402094DA84202D0094DA84207D150
:102E400023F4807323F400734D692B438D692B4366
:102E5000436084614D684563026230BD002C0140CF
:102E60000034014030B5026A056A25F0100505629C
:102E70004368846924F4E04424F440740D6844EA0F
:102E8000052422F020028D6842EA0512124DA84264
:102E900000D103E0114DA84207D100BF22F080020B
:102EA000CD6842EA051222F040020B4DA84202D042
:102EB0000A4DA84209D123F4806323F400634D69CD
:102EC00043EA85038D6943EA8503436084614D6865
:102ED0008563026230BD0000002C014000340140D7
:102EE00030B5026A056A25F4807505624368C469D5
:102EF00024F0700424F003040D682C4322F40072C3
:102F00008D6842EA0522124DA84200D103E0114D1E
:102F1000A84207D100BF22F40062CD6842EA052230
:102F200022F480620A4DA84202D00A4DA84209D17B
:102F300023F4805323F400534D6943EA05138D694C
:102F400043EA05134360C4614D68C563026230BD46
:102F5000002C01400034014030B5036A056A25F4B5
:102F6000805505624468C26922F4E04222F440724E
:102F70000D6842EA052223F400538D6843EA0533C5
:102F8000084DA84202D0084DA84204D124F4804440
:102F90004D6944EA85144460C2614D68056403626A
:102FA00030BD0000002C01400034014030B50B461C
:102FB0001446026A056A25F001050562816921F05F
:102FC000F00141EA041122F00A021A43816102620F
:102FD00030BD30B50B461446026A056A25F010056F
:102FE0000562816921F4704141EA043122F0A002B6
:102FF00042EA03128161026230BD70B505466C6A17
:103000000020E085E0842046FEF7CEFD70BD00BFC5
:1030100000BF02680C3252E8002F22F4907102685F
:103020000C3242E80013002BF3D100BF00BF00BFF9
:103030000268143252E8002F22F0010102681432B3
:1030400042E80013002BF3D100BF016B01290ED120
:1030500000BF00BF02680C3252E8002F22F01001BE
:1030600002680C3242E80013002BF3D100BF20218C
:1030700080F8421000210163704710B504462068B3
:10308000C06820F040002168C860202084F841001A
:103090002046FEF7D1FF002010BDF8B5044694F895
:1030A0004200222875D1A068B0F5805F0CD120695C
:1030B00050B90025A66A20684068C0F30800308037
:1030C000A06A801CA06215E0A56A0026A068B0F581
:1030D000805F03D0A06828B9206918B920684068CB
:1030E000287004E02068406800F07F002870A06A23
:1030F000401CA062E08D401E80B2E085002846D1D1
:103100002068C06820F020002168C8602068C0687E
:1031100020F480702168C8602068406920F00100B8
:1031200021684861202084F8420000206063206B01
:10313000012826D10020206300BF00BF21680C3188
:1031400051E8001F21F0100021680C3141E8000215
:10315000002AF3D100BF2068006800F0100010289A
:103160000AD100BF0020009020680068009020680D
:103170004068009000BF00BFA18D2046FEF713FD00
:1031800002E02046FEF722FF0020F8BD01E000200B
:10319000FBE70220F9E7000070B5044621680969E1
:1031A00021F44051E2681143226811612269A1684B
:1031B0001143626941EA02052168C96841F20C6263
:1031C000914329432268D1602168496921F4407103
:1031D000A2691143226851612D4A2168914202D1AE
:1031E000FDF78EFE01E0FDF77BFE00EBC00101EB79
:1031F000001162689200B1FBF2F100EBC00202EB39
:10320000001263689B00B2FBF3F26423B2FBF3F29B
:1032100002EBC20303EB0212A1EB8201322202EBAA
:1032200001116422B1FBF2F101F0F00100EBC002E8
:1032300002EB001263689B00B2FBF3F26423B2FB63
:10324000F3F201EB021200EBC00101EB0011636825
:103250009B00B1FBF3F100EBC00303EB00136668C6
:10326000B600B3FBF6F36426B3FBF6F303EBC30639
:1032700006EB0313A1EB8301322303EB011164235B
:10328000B1FBF3F101F00F0111442268916070BDB0
:103290000038014010B5034699629A85DA8500200E
:1032A0005864222083F84200186928B11868C06861
:1032B00040F480701C68E0601868406940F00100CC
:1032C0001C6860611868C06840F020001C68E060FD
:1032D000002010BD014691F84100212828D18868BE
:1032E000B0F5805F0BD1086948B90A6A1088C0F34D
:1032F00008000B685860086A801C086205E00B6AC9
:10330000581C086218780B685860C88C401E80B240
:10331000C88458B90868C06820F080000B68D8607D
:103320000868C06840F040000B68D8600020704713
:103330000220FCE710B50248FEF738FC10BD000083
:103340009803002000BFFEE700B585B000BF294804
:10335000806940F04000274988610846806900F094
:103360004000009000BF00BF00BF0846806940F0E9
:10337000200088610846806900F02000009000BFAE
:1033800000BF01200190032004900120029001A9B8
:103390001948FDF709FA0420019001A91648FDF724
:1033A00003FA4FF400500190032004900120029092
:1033B00001A91248FDF7F8F90820019003200490B4
:1033C000002002900120039001A90B48FDF7ECF9C1
:1033D0004FF0005009491031086010200190002082
:1033E00002900120039001A90348FDF7DDF905B023
:1033F00000BD000000100240001801400014014010
:1034000002480068C0F30220704700000CED00E0A5
:1034100010B5002804DB0A07130E054A135406E012
:103420000A07140E034A00F00F031B1FD45410BDEB
:1034300000E400E018ED00E01CB5FDF76DFBFFF7C0
:1034400029FCFFF7B7FAFFF77DFBFFF7CFFBFFF78C
:1034500057FAFEF723FF0620FEF7B0FE1548038853
:103460001548028800210846FEF7F8FD13A2002146
:103470000846FEF75FFEFFF767FF0C211348FEF7D3
:103480000BFB022212480168491C1248FEF788FD16
:1034900011480621CDE900100D4864220FA10368F0
:1034A0000F4800F09FFDFFF717FA00F02EF800BF5D
:1034B000FEE700008E0000208C00002048656C6C48
:1034C0006F20576F726C64210000000050030020D1
:1034D0000400002098030020080000204C45440010
:1034E0002528000801460020842901D0CA1C104468
:1034F000704770B5044625460DB1294600E001210C
:10350000084600F01FFC002070BD10B500F048FC1C
:10351000002010BD7FB504460D46606998B1A069D2
:1035200088B1B4F90800FFF7DDFF0646D4E90510BD
:10353000CDE9006102902B462269D4E9001000F029
:1035400083FD039013E0B4F90800FFF7CBFF0646B4
:1035500003A8CDE90060238A9AB22B46D4E9001073
:1035600000F040FD012802D0002004B070BD039897
:10357000FBE700002DE9F04105460E461C480768B0
:103580001C480068001D00F0E1FA50B919480068B5
:1035900090F82C100120884017490968814316488B
:1035A0000160681C38B936B112480168091D13481A
:1035B00000F016FB1AE07C190E4800684460BC421B
:1035C00007D20C480168091D0D48006800F0EEFAAA
:1035D0000CE008480168091D0A48006800F0E6FA96
:1035E00009480068844201D207480460BDE8F081C0
:1035F000400000202C000020440000200405002092
:1036000034000020300000205C00002010B504468B
:1036100000F0F2FA23480068401C22490860224862
:10362000006840B9204804600846006801280DD1B0
:1036300000F03AF90AE01D48006838B91A480068F5
:10364000C06AE16A884201D81748046018480068D7
:10365000401C1749086094F82C1001208840154937
:103660000968084313490860E16A01EB8101124AC5
:1036700002EB8100211D00F0B3FA00F0E7FA0B48DD
:10368000006868B108480068C06AE16A884207D2E9
:103690004FF0805009490860BFF34F8FBFF36F8F21
:1036A00010BD00003C0000202C000020480000203D
:1036B00058000020440000202804002004ED00E011
:1036C00010B516E000F098FA0C48C068C468201DD8
:1036D00000F03CFA0A480068401E094908600948A1
:1036E0000068401E0749086000F0B0FA204600F06C
:1036F0000BF8044800680028E4D110BDF004002055
:103700003C0000203800002010B5044694F8510019
:1037100030B9206B00F0B8FA204600F0B5FA1AE094
:1037200094F85100012803D1204600F0ADFA12E0D0
:1037300094F85100022801D1012000E0002050B986
:1037400000BF502080F31188BFF34F8FBFF36F8FFE
:1037500000BF00BFFEE710BD30B54FF4406317480F
:1037600000F007042CB1C01D20F00700134C041B0F
:103770001B1B0246124C22600024114D6C60D018B5
:10378000083820F007000F4C206000240D4D2D68F4
:103790006C600C4D2D682C601146441A4C60094C2D
:1037A00024680C60084D4C682C60084D4C682C60F7
:1037B0004FF00044064D2C6030BD0000180500207D
:1037C00068000020700000207800002074000020B5
:1037D0007C00002000BFFFF773FF06480068012847
:1037E000F9D94FF0805004490860BFF34F8FBFF301
:1037F0006F8FF0E72804002004ED00E02DE9FF5F63
:1038000081460F469246DDE90E6B109CAAF101003D
:10381000216B01EB800828F0070808F0070008B9C1
:10382000012000E0002050B900BF502080F3118833
:10383000BFF34F8FBFF36F8F00BF00BFFEE70025C0
:1038400007E0795D04F134004155785D00B902E08C
:103850006D1C102DF5D300BF002143200155072E0C
:1038600000D30626E66266640020A064201D00F0F6
:103870009AF904F1180000F096F92461C6F10700E6
:10388000A06164620020E06484F85000494640462C
:10389000039A00F049F92060BBF1000F01D0CBF88A
:1038A0000040BDE8FF9F000010B5002407E004EBD6
:1038B00084010F4A02EB810000F068F9641C072CB8
:1038C000F5D30C4800F062F90B4800F05FF90B48A3
:1038D00000F05CF90A4800F059F90A4800F056F97E
:1038E00004480949086004480849086010BD000000
:1038F00028040020B4040020C8040020DC040020B8
:10390000F0040020040500203000002034000020D6
:1039100010B50146164800E0006803688B42FBD3EF
:103920000246436813448B4204D143684C682344E5
:10393000436001460A464B6813440468A34211D110
:103940000C4C03682468A34208D04B680468646880
:1039500023444B6003681B680B6005E0054B1B6844
:103960000B6001E003680B60884200D0016010BD6D
:1039700068000020700000200A490968096809B938
:10398000012100E0002121B14FF0FF31064A116012
:1039900006E004490968C968C868034A41681160BB
:1039A00070470000300000205C0000200E480068D6
:1039B000401C08B9012000E0002050B900BF502091
:1039C00080F31188BFF34F8FBFF36F8F00BF00BF2D
:1039D000FEE700BF502080F31188BFF34F8FBFF385
:1039E0006F8F00BF00BFFEE7800000202DE9F0418F
:1039F00004464FF0000800F02BFA4648006808B96A
:103A0000FFF7AAFE44480068204000286BD1D4B1DB
:103A1000083404F00700B0B104F00700C0F108005A
:103A2000044404F0070008B9012000E0002050B968
:103A300000BF502080F31188BFF34F8FBFF36F8F0B
:103A400000BF00BFFEE7002C4DD034480068844220
:103A500049D8334E3046056801E02E462D68686827
:103A6000A04202D228680028F7D12A48006885427F
:103A700039D0306800F10808286830606868001B99
:103A8000102819D92F1907F0070008B9012000E004
:103A9000002050B900BF502080F31188BFF34F8F32
:103AA000BFF36F8F00BF00BFFEE76868001B786040
:103AB0006C603846FFF72CFF184968680968081AD7
:103AC000164908600846006816490968884203D20A
:103AD00012480068134908600F496868096808437C
:103AE00068600020286000F0AFFB08F0070008B90C
:103AF000012000E0002050B900BF502080F3118861
:103B0000BFF34F8FBFF36F8F00BF00BFFEE740468C
:103B1000BDE8F081700000207C00002074000020CF
:103B20006800002078000020001F4FF080730360C1
:103B3000001F21F001030360001F034B03601438D2
:103B40000260203870470000AD39000801460A695C
:103B5000D1E901309860D1E901035860506888428A
:103B600001D188685060002008611068401E106014
:103B700010687047034B0360034B0B608023136096
:103B800070470000B40000200801002000F1080187
:103B900041604FF0FF31816000F10801C1600161B7
:103BA00000210160704700210161704710B5024695
:103BB0000B685C1C0CB9106907E002F1080000E01A
:103BC0004068446824689C42FAD944684C604C6858
:103BD000A160886041600A611468641C146010BDB3
:103BE00042684A6093688B6093685960916008618D
:103BF00003685B1C0360704700BF502080F311888E
:103C0000BFF34F8FBFF36F8F00BF0E480068401C9B
:103C10000C49086008460068012812D10A4800686B
:103C2000C0B208B9012000E0002050B900BF502008
:103C300080F31188BFF34F8FBFF36F8F00BF00BFBA
:103C4000FEE770478000002004ED00E00D480068AA
:103C500050B900BF502080F31188BFF34F8FBFF3DE
:103C60006F8F00BF00BFFEE706480068401E054991
:103C700008600846006820B9002080F3118800BF62
:103C800000BF70478000002070B506463546002E04
:103C90003FD0083D2C461F4960680968084008B1BC
:103CA000012000E0002050B900BF502080F31188AF
:103CB000BFF34F8FBFF36F8F00BF00BFFEE72068D9
:103CC00008B9012000E0002050B900BF502080F367
:103CD0001188BFF34F8FBFF36F8F00BF00BFFEE7A8
:103CE0000C4960680968084098B1206888B909499A
:103CF000606809688843606000F0AAF80649606857
:103D000009680844044908602046FFF701FE00F0F6
:103D10009BFA70BD7C0000207400002000204FF052
:103D2000E02108618861064800684FF47A71B0FBB1
:103D3000F1F0401E4FF0E021486107200861704714
:103D40002800002070B504460025D4B11248006850
:103D500008B9012000E0002050B900BF502080F3D6
:103D60001188BFF34F8FBFF36F8F00BF00BFFEE717
:103D700000F06EF800212046FFF7FCFB00F064FA2B
:103D800005463DB94FF0805004490860BFF34F8F9E
:103D9000BFF36F8F70BD00006400002004ED00E0F1
:103DA00010B586B000200590049003AA04A905A8C8
:103DB000FFF7E0FE0022DDE904101346CDE9002103
:103DC00002901CA11D48039A00F03EF91C490860AE
:103DD0000846006808B1012400E00024012C15D138
:103DE00000BF502080F31188BFF34F8FBFF36F8F58
:103DF00000BF4FF0FF3013490860012012490860EE
:103E000000201249086000F071F810E0601C08B151
:103E1000012000E0002050B900BF502080F311883D
:103E2000BFF34F8FBFF36F8F00BF00BFFEE706B039
:103E300010BD000049444C4500000000D537000883
:103E4000600000205C0000204800002040000020AE
:103E500002480068401C0149086070476400002067
:103E60001D48006818B101201C49086032E000209C
:103E70001A4908601A480068B0FA80F0C0F11F01C2
:103E800001EB8100174A52F8200008B1012000E040
:103E9000002050B900BF502080F31188BFF34F8F2E
:103EA000BFF36F8F00BF00BFFEE701EB81020D4B38
:103EB00003EB820042685268426000F108024368E6
:103EC000934202D14268526842604268D268064B0F
:103ED0001A6000BF704700006400002050000020FE
:103EE00044000020280400202C0000201CB5384984
:103EF000084600780190FF200A46107008460078B6
:103F000000909DF8000000F0F0009DF80020904225
:103F100001D1012000E0002050B900BF502080F303
:103F20001188BFF34F8FBFF36F8F00BF00BFFEE755
:103F30009DF8000000F05000264A10700720264A25
:103F4000106009E024480068401E234A10609DF874
:103F500000004006000E00909DF8000000F0800078
:103F60008028EFD01C480068C0F10700042801D168
:103F7000012000E0002050B900BF502080F31188DC
:103F8000BFF34F8FBFF36F8F00BF00BFFEE7124834
:103F900000680002104A10601046008800F4E060DB
:103FA00010600B4A019810700C48006840F47000D3
:103FB0000A4908600846006840F070400860FFF752
:103FC000ADFE002006490860FCF712F900201CBD78
:103FD00000E400E0840000208800002020ED00E0E4
:103FE000800000202DE9FF4F85B0804689461746A6
:103FF000DDE912ABB800FFF7F9FC064656B15420D4
:10400000FFF7F4FC04460CB1266304E03046FFF7EA
:104010003BFE00E000248CB1002084F85100CDE983
:1040200000ABCDE902403A4649464046089BFFF7BF
:10403000E5FB2046FFF7EAFA012501E04FF0FF35E6
:10404000284609B0BDE8F08F2DE9F04F85B007464E
:10405000884691469A46DDE90EB6109C0EB10120C5
:1040600000E0002050B900BF502080F31188BFF35A
:104070004F8FBFF36F8F00BF00BFFEE70CB1012071
:1040800000E0002050B900BF502080F31188BFF33A
:104090004F8FBFF36F8F00BF00BFFEE75420039028
:1040A0000398542801D1012000E0002050B900BF3E
:1040B000502080F31188BFF34F8FBFF36F8F00BF85
:1040C00000BFFEE7B4B1AEB125462C462E630220F8
:1040D00085F85100002004A953464A46CDE900B1B5
:1040E000CDE9025041463846FFF788FB2846FFF7E6
:1040F0008DFA01E000200490049805B0BDE8F08F2F
:104100002DE9F0414FF0000844480068002877D1BD
:1041100043480068451C4248056015BB414800689B
:10412000006808B9012000E0002050B900BF50200D
:1041300080F31188BFF34F8FBFF36F8F00BF00BFB5
:10414000FEE738480768384800683649086036484E
:10415000076036480068401C34490860FFF70CFCD3
:1041600000BF3348006885423CD300BF2D4800683B
:10417000006808B9012000E0002020B14FF0FF30B6
:104180002B4908602DE027480068C068C46866684D
:10419000B54202D22648066023E0201DFFF7D6FC78
:1041A000A06A18B104F11800FFF7D0FC94F82C10A5
:1041B000012088401F49096808431E490860E16AD8
:1041C00001EB81011C4A02EB8100211DFFF708FD74
:1041D0001A49E06A0968C96A8842C7D34FF00108E2
:1041E000C4E700BF15480068C06A00EB80001249B0
:1041F00051F82000012801D94FF0010805E0FFE740
:104200000F480068401C0E4908600E48006808B15D
:104210004FF001084046BDE8F08100006400002036
:104220004000002030000020340000205400002016
:104230005C00002044000020280400202C00002006
:104240004C0000205000002070B5002400263648A5
:10425000006850B900BF502080F31188BFF34F8F22
:10426000BFF36F8F00BF00BFFEE7FFF7C5FC2E480E
:104270000068401E2C4908600846006800284FD19D
:104280002A48006800284BD024E02948C068C46848
:1042900004F11800FFF75AFC201DFFF757FC94F8B3
:1042A0002C100120884023490968084321490860EF
:1042B000E16A01EB8101204A02EB8100211DFFF739
:1042C0008FFC1E49E06A0968C96A884202D301204E
:1042D0001B4908601648006808B9012000E000206A
:1042E0000028D2D00CB1FFF747FB1648056865B12E
:1042F00000BFFFF705FF10B10120114908606D1ED6
:10430000002DF6D100200F4908600D48006838B133
:10431000012630070C490860BFF34F8FBFF36F8F42
:10432000FFF794FC304670BD640000203C00002084
:10433000DC04002044000020280400202C00002081
:10434000500000204C00002004ED00E0F47E000846
:10435000552C000800000000000000008000000054
:104360000000000000000000020304050607080921
:104370000A0B0C0D0E0F10100102000000000000CF
:104380000000010203040607080900000000010202
:104390000304000000000000000000000000000016
:1043A0000000000000181818181818080008180055
:1043B000000000000034242424000000000000005D
:1043C00000000000000016247F2424247E24240002
:1043D0000000000000083E6848681C1612127C109D
:1043E000100000000061D296740810162949C6001A
:1043F0000000000000003C646438724ACE467F0032
:10440000000000000018181818000000000000004C
:104410000000000000040818103030303010101870
:104420000C04000000201008080C0404040C0818F8
:104430001020000000080A341C6A08000000000078
:1044400000000000000000001818187F181818005D
:104450000000000000000000000000000018180824
:1044600030000000000000000000003C00000000E0
:10447000000000000000000000000000001818000C
:1044800000000000000206040C0808101020204064
:104490000000000000003C6642475B7342663C003F
:1044A00000000000000018784808080808087E008E
:1044B0000000000000003C460606040810207E00B4
:1044C0000000000000007C0606043C0202067C009E
:1044D0000000000000000C1C14246444FF040400CD
:1044E0000000000000007E6060607E0202067C002A
:1044F0000000000000001E306048764242623C002E
:104500000000000000007E0206040C0818103000B5
:104510000000000000003C6242361C6642423C0043
:104520000000000000003C664242661A0204780067
:10453000000000000000000018180000001818001B
:104540000000000000000000181800000018180803
:10455000300000000000000004183060100C06005D
:10456000000000000000000000007E007E0000004F
:104570000000000000000000301804060C102000AD
:104580000000000000301C06060618100010100085
:1045900000000000001C224141DDB5A5A5AF94C07C
:1045A000403C00000000181C342426627E43C100F9
:1045B0000000000000007C4642467C4242427C00F3
:1045C0000000000000001E204040404040603E00CF
:1045D0000000000000007C4642434343424678000E
:1045E0000000000000007E6060607E6060607E0011
:1045F0000000000000007E6060607E60606060001F
:104600000000000000001E604040CE4242623E00BA
:10461000000000000000424242427E42424242000C
:104620000000000000007E181818181818187E00E6
:104630000000000000007C0404040404044478002A
:104640000000000000004244485070584C444200B2
:1046500000000000000020202020202020203E001C
:104660000000000000006266675F5B5BC1C1C100C3
:10467000000000000000626272525A4A4E46460034
:104680000000000000003C6243C3C3C343623C001F
:104690000000000000007C46424246784040400056
:1046A0000000000000003C6243C3C3C343623C18E7
:1046B0000F00000000007C6662667C6C646662002D
:1046C0000000000000003E6040601C0602027C000A
:1046D0000000000000007F1818181818181818009B
:1046E00000000000000042424242424242623C005E
:1046F000000000000000C14342622624341C180060
:10470000000000000000C1C141495B5B76666600A5
:1047100000000000000043663418181C2466C30023
:10472000000000000000C14266341C181818180070
:104730000000000000007E02040C181020607E00C3
:1047400000000000001C10101010101010101010AD
:10475000101C000000402020101008080C04060265
:1047600000000000003C0C0C0C0C0C0C0C0C0C0C95
:104770000C3C00000000181C246200000000000037
:104780000000000000000000000000000000000029
:1047900000FF0000002010000000000000000000EA
:1047A00000000000000000003C06023E42467A0085
:1047B00000000000004040405C62424242427C00F7
:1047C00000000000000000001E20604060203E004D
:1047D00000000000000202023E62424242663A00CD
:1047E00000000000000000003C62427E40603E008D
:1047F00000000000000F1810107E101010101000A4
:1048000000000000000000003F66426658403E4342
:10481000423C0000004040405C6242424242420052
:1048200000000000001818007808080808087E003A
:104830000000000000040C007C04040404040404D0
:104840000C78000000606060626C787068646200E0
:1048500000000000007808080808080808087E0022
:104860000000000000000000764B4B4B4B4B4B0010
:1048700000000000000000005C6242424242420030
:1048800000000000000000003C62424342623C0025
:1048900000000000000000005C62424242427C4096
:1048A00040400000000000003E62424242663A0280
:1048B00002020000000000006E7263606060600031
:1048C00000000000000000003E20203C06027C00AA
:1048D0000000000000001010FE10101010101E004C
:1048E00000000000000000004242424242663A00DE
:1048F0000000000000000000434266243418180045
:104900000000000000000000C1C15B5A5E66660046
:10491000000000000000000062261C181C26620037
:10492000000000000000000043426624341C1818F8
:1049300030E00000000000007E060C1810207E0011
:1049400000000000000E1810101030701010101031
:10495000180E0000080808080808080808080808D1
:10496000080800000030180808080C0E080808089D
:1049700018300000000000000000714B060000002D
:104980000000000000000000000000000000000027
:104990000000000000000000000000000000000017
:1049A0000000000000000000000000000000000007
:1049B00000000000000000000000000003800180F3
:1049C00001800180018001800180018001800180DF
:1049D0000000000003C003C0000000000000000051
:1049E0000000000000000000000000000E700E70CB
:1049F0000E700C30000000000000000000000000FD
:104A000000000000000000000000000000000000A6
:104A10000000000000000000000000000000061878
:104A2000063806307FFE0C300C300C300C307FFE28
:104A30000C601C601860186000000000000000009E
:104A40000000000000000000000000C000C00FF8DF
:104A50003CC831C031803D801F8003F001F8031C49
:104A6000030C031C3FF83FE00700060000000000B5
:104A7000000000000000000000001C007E0E630C1F
:104A8000631863307E6000C001800300077C0EE67F
:104A90001CC618C630C6607C000000000000000084
:104AA0000000000000000000000000000FE01CF00B
:104AB000387038701C601FC00F003F8C71CC60ECE8
:104AC000607C70383CFC1FCE00000000000000003D
:104AD00000000000000000000000000003C0018092
:104AE00001800180000000000000000000000000C4
:104AF00000000000000000000000000000000000B6
:104B000000000000000000000000003000E001C0D4
:104B1000018003000700060006000E000E000E00D4
:104B20000E00060007000300038001C000E0003013
:104B3000000000000000000000000C0006000380E0
:104B4000018001C000E00060006000700070007033
:104B50000060006000E000C00180038006000C00DF
:104B6000000000000000000000000000018011882B
:104B70001DB803C007E03DBC0188018000000000B3
:104B80000000000000000000000000000000000025
:104B90000000000000000000000000000000000015
:104BA0000000018001800180018001807FFE018082
:104BB0000180018001800000000000000000000072
:104BC00000000000000000000000000000000000E5
:104BD00000000000000000000000000000000000D5
:104BE000000003C003C001C001C003801F0000001B
:104BF00000000000000000000000000000000000B5
:104C00000000000000000000000000000FF00000A5
:104C10000000000000000000000000000000000094
:104C20000000000000000000000000000000000084
:104C30000000000000000000000000000000000074
:104C4000000003C003C003C000000000000000001B
:104C50000000000000000000000000000018003804
:104C60000030006000E000C001C0018003000300CC
:104C700006000E000C001C001800300000000000B0
:104C800000000000000000000000000001800FF0A4
:104C90001C38381C301C707E70EE738E7E0E7C0CBF
:104CA000300C381C1E780FE00000000000000000EF
:104CB000000000000000000000000000000007C02D
:104CC0001FC039C001C001C001C001C001C001C086
:104CD00001C001C03FFC3FFC0000000000000000DC
:104CE00000000000000000000000000003801FF032
:104CF00018380038001800380038007001E00380D0
:104D000007001C003FFC3FFC00000000000000000A
:104D100000000000000000000000000007801FF0FD
:104D2000003800380038003007E007F00038001C79
:104D3000001C001820F83FE0000000000000000008
:104D4000000000000000000000000000000000F073
:104D500001B0033007300E301C30383070307FFE29
:104D60007FFE003000300030000000000000000036
:104D700000000000000000000000000000001FF81C
:104D800018001800180018001FE000F8001C001C94
:104D9000001C003800F01FC00000000000000000F0
:104DA000000000000000000000000000000003F808
:104DB0000F001C001800300037F83C3C300C300C61
:104DC000380C381C1E380FF00000000000000000F6
:104DD00000000000000000000000000000003FFC98
:104DE000001C001800380070006000E001C0018065
:104DF0000380070006000E00000000000000000015
:104E000000000000000000000000000003C01FF8C8
:104E1000381C381C381C1C380FF007F01C78381C64
:104E2000300C381C3C380FF000000000000000007F
:104E300000000000000000000000000003801FF0E0
:104E40003838301C701C700C380C1FFC0FCC001C48
:104E5000001800701FE01F8000000000000000002C
:104E60000000000000000000000000000000000042
:104E70000000000003C003C001800000000000002B
:104E8000000003C003C003C00000000000000000D9
:104E90000000000000000000000000000000000012
:104EA0000000000003C003C00180000000000000FB
:104EB000000003C003C001C001C003800F00000058
:104EC00000000000000000000000000000000000E2
:104ED0000000003800F001C007001E0038000E007E
:104EE000078001C0007000300000000000000000DA
:104EF00000000000000000000000000000000000B2
:104F000000000000000000003FFC000000003FFC2B
:104F10003FFC000000000000000000000000000056
:104F20000000000000000000000000000000000081
:104F300000001C000F00038001E00078001C0070DE
:104F400001E003800E000C000000000000000000E3
:104F50000000000000000000000000000FC000F092
:104F6000003800380038003803F0038003000300E5
:104F70000000000007800780000000000000000023
:104F80000000000000000000000000E007F80C0C2A
:104F900018063006700363F36633C673CC63CC62C5
:104FA000CC66CCE6C7FCE0006000700038101FF053
:104FB000000000000000000000000000000003C02E
:104FC00007E006E00E700E700C301C3818183FFC1D
:104FD0003FFC700E600EE0070000000000000000C3
:104FE00000000000000000000000000000003FF092
:104FF0003838381C381C38383FF03FF8381C380C2B
:10500000380C381C3FF83FE00000000000000000B2
:1050100000000000000000000000000000E007FCAD
:105020001E0438003800300070007000700030003E
:1050300038003C001F9C07FC00000000000000003E
:1050400000000000000000000000000000003FF031
:105050003078301C300C300E300E300E300E300EEA
:10506000301C30383FF03FC000000000000000005E
:1050700000000000000000000000000000001FF819
:1050800018001800180018001FF81FF81800180062
:10509000180018001FF81FF80000000000000000B2
:1050A00000000000000000000000000000001FF8E9
:1050B00018001800180018001FF81FF81800180032
:1050C0001800180018001800000000000000000080
:1050D00000000000000000000000000000F007FCDD
:1050E0001E04380030007000700070FC700C700CF2
:1050F000300C380C1F1C07FC0000000000000000F2
:105100000000000000000000000000000000300C63
:10511000300C300C300C300C3FFC3FFC300C300CB1
:10512000300C300C300C300C00000000000000008F
:1051300000000000000000000000000000003FFC34
:105140000180018001800180018001800180018057
:10515000018001803FFC3FFC0000000000000000D7
:1051600000000000000000000000000000001FF030
:1051700000300030003000300030003000300030AF
:10518000003000701DE01FC00000000000000000A3
:105190000000000000000000000000000000381CBB
:1051A000387038E039C03B803F003F003B8039C059
:1051B00038E038703838381C00000000000000006B
:1051C00000000000000000000000000000001C00C3
:1051D0001C001C001C001C001C001C001C001C00EF
:1051E0001C001C001FFC1FFC000000000000000051
:1051F0000000000000000000000000000000381C5B
:105200007C3C6C3E6E6E666E66CE63C6638661865F
:1052100060066006600660060000000000000000F6
:1052200000000000000000000000000000003C0C36
:105230003C0C3E0C360C330C338C318C31CC30ECC6
:10524000306C307C303C301C00000000000000005E
:1052500000000000000000000000000001C00FF886
:105260001C3C381C700E700E60066006700E700ECE
:10527000700C381C1E780FE00000000000000000D9
:1052800000000000000000000000000000003FF0EF
:10529000383C381C380C380C381C38783FE0380063
:1052A000380038003800380000000000000000001E
:1052B00000000000000000000000000001C00FF826
:1052C0001C3C381C700E700E60066006700E700E6E
:1052D000700C381C1E780FE0018001C000FF003CFC
:1052E00000000000000000000000000000003FF08F
:1052F000383838183818383838F03FC038E0387047
:1053000038383838381C380E000000000000000023
:1053100000000000000000000000000001E00FF8A5
:105320003800380038003C001F8003F00078001C73
:10533000001C001C38783FE0000000000000000066
:1053400000000000000000000000000000007FFEE0
:105350000180018001800180018001800180018045
:105360000180018001800180000000000000000039
:105370000000000000000000000000000000300CF1
:10538000300C300C300C300C300C300C300C300C3D
:10539000300C381C1C380FF000000000000000002A
:1053A0000000000000000000000000000000E00617
:1053B000700E700E381C381C1C181C380C300E7007
:1053C000066007E003C003C000000000000000000A
:1053D0000000000000000000000000000000600667
:1053E0006006600660066186638673C673CE766C5F
:1053F000366C3C3C3C3C381C0000000000000000C7
:105400000000000000000000000000000000301C50
:1054100038181C380E7007E003C003C007E00E7098
:105420001C381838381C700E000000000000000006
:105430000000000000000000000000000000700EEE
:10544000700C381C1C380E70066007E003C0018029
:105450000180018001800180000000000000000048
:1054600000000000000000000000000000003FFC01
:10547000001C0038007000E001C0038007000E002F
:105480000C0018003FFC3FFC000000000000000082
:105490000000000000000000000007F007F0060018
:1054A00006000600060006000600060006000600CC
:1054B000060006000600060006000600060007F0CB
:1054C00000000000000000000000000018001C00A8
:1054D0000C000600070003000380018001C000C02B
:1054E00000600070003000380018000C0000000060
:1054F000000000000000000000000FE00FE000606E
:10550000006000600060006000600060006000609B
:1055100000600060006000600060006000600FE0FC
:10552000000000000000000000000000000003C0B8
:1055300006C006600C301818301C00000000000087
:10554000000000000000000000000000000000005B
:10555000000000000000000000000000000000004B
:10556000000000000000000000000000000000003B
:105570000000000000000000000000000000FFFF2D
:105580000000000000000000000000001E0003807A
:10559000000000000000000000000000000000000B
:1055A00000000000000000000000000000000000FB
:1055B00000000000000000000000000000000000EB
:1055C000000000001FF01038001C001C0FFC1C1C09
:1055D000381C381C3CFC1FDC0000000000000000F0
:1055E000000000000000000000000000380038004B
:1055F000380038003BF83E1C3C1C380C380C380C8A
:10560000380C381C3C781FE000000000000000004F
:10561000000000000000000000000000000000008A
:105620000000000007F80E001C00380038003800A9
:1056300038001C000F1807F80000000000000000F0
:10564000000000000000000000000000001C001C22
:10565000001C001C0FFC1C1C381C301C301C301C97
:10566000301C383C1CFC0F9C0000000000000000B7
:10567000000000000000000000000000000000002A
:10568000000000000FF01C38381C300C3FFC3000CC
:10569000300038001E0C07FC000000000000000075
:1056A00000000000000000000000003C01FE03803C
:1056B0000300030003007FFC7FFC030003000300E2
:1056C00003000300030003000000000000000000CE
:1056D00000000000000000000000000000000000CA
:1056E000000000000FFE1C383818381818381FF05A
:1056F0003B8030003FF01FFC300E700E381C1FF84E
:105700000000000000000000000000003800380029
:10571000380038003BF83E383C1C381C381C381C1C
:10572000381C381C381C381C000000000000000029
:1057300000000000000000000000018003C003C062
:10574000000000001FC001C001C001C001C001C0B5
:1057500001C001C001C03FFC0000000000000000CB
:105760000000000000000000000000200070007039
:10577000000000003FF000700070007000700070CA
:1057800000700070007000700070007020E03FC07A
:1057900000000000000000000000000018001800D9
:1057A00018001800183C187018E01B801F001B80A0
:1057B00019E018701838181C0000000000000000E4
:1057C0000000000000000000000000001FC001C039
:1057D00001C001C001C001C001C001C001C001C0C1
:1057E00001C001C001C03FFC00000000000000003B
:1057F00000000000000000000000000000000000A9
:10580000000000006F3C79EE71CE718E718E718E4A
:10581000718E718E718E718E00000000000000008C
:105820000000000000000000000000000000000078
:10583000000000003BF83E383C1C381C381C381C6B
:10584000381C381C381C381C000000000000000008
:105850000000000000000000000000000000000048
:10586000000000000FF01C3C381C700E700E700E13
:10587000700C381C1E780FE00000000000000000D3
:105880000000000000000000000000000000000018
:10589000000000003BF83E1C3C1C380C380C380C57
:1058A000380C381C3C783FE03800380038003800AD
:1058B00000000000000000000000000000000000E8
:1058C000000000000FFC1C1C381C301C301C301C5D
:1058D000301C383C1CFC0F9C001C001C001C001CD5
:1058E00000000000000000000000000000000000B8
:1058F0000000000019F81F1C1C0C180E18001800DE
:105900001800180018001800000000000000000037
:105910000000000000000000000000000000000087
:10592000000000000FF81C0018001E000FC001F856
:105930000018001818381FF00000000000000000D8
:105940000000000000000000000000000000060051
:10595000060006007FFC06000600060006000600A2
:1059600006000700078401FC0000000000000000A2
:105970000000000000000000000000000000000027
:1059800000000000381C381C381C381C381C381C1F
:10599000381C383C1CFC0FDC00000000000000003C
:1059A00000000000000000000000000000000000F7
:1059B00000000000700C381C38181C380C300E70B9
:1059C000066007E003C003C0000000000000000004
:1059D00000000000000000000000000000000000C7
:1059E00000000000600660066186738E73CC33CCC5
:1059F000366C366C3C3C3C38000000000000000077
:105A00000000000000000000000000000000000096
:105A100000000000381C1C380E7007E003C003C0F3
:105A200007E00E701C38381E000000000000000067
:105A30000000000000000000000000000000000066
:105A400000000000700C381C38181C380C300E7028
:105A5000066007E003C003C0038007000E007C005F
:105A60000000000000000000000000000000000036
:105A7000000000001FF80038007000E001C0038043
:105A800007000C001FFC3FFC0000000000000000AD
:105A900000000000000000000000007801F8038012
:105AA000038003800380038003003F003E00030067
:105AB00003800380038003800380038001C000F81B
:105AC0000000000000000180018001800180018051
:105AD00001800180018001800180018001800180BE
